{
  "contractName": "Counter",
  "abi": [
    {
      "inputs": [],
      "name": "counter",
      "outputs": [
        {
          "internalType": "uint256",
          "name": "",
          "type": "uint256"
        }
      ],
      "stateMutability": "view",
      "type": "function",
      "constant": true
    },
    {
      "inputs": [],
      "name": "increment",
      "outputs": [
        {
          "internalType": "uint256",
          "name": "",
          "type": "uint256"
        }
      ],
      "stateMutability": "nonpayable",
      "type": "function"
    },
    {
      "inputs": [],
      "name": "decrement",
      "outputs": [
        {
          "internalType": "uint256",
          "name": "",
          "type": "uint256"
        }
      ],
      "stateMutability": "nonpayable",
      "type": "function"
    }
  ],
  "bytecode": "0x6080604052601760005534801561001557600080fd5b50610108806100256000396000f3fe6080604052348015600f57600080fd5b5060043610603c5760003560e01c80632baeceb714604157806361bc221a14605d578063d09de08a146079575b600080fd5b60476095565b6040518082815260200191505060405180910390f35b606360b1565b6040518082815260200191505060405180910390f35b607f60b7565b6040518082815260200191505060405180910390f35b6000806000815480929190600190039190505550600054905090565b60005481565b6000806000815480929190600101919050555060005490509056fea2646970667358221220beabf50cbe258a0210b1a0fbf3438f0138ae5c03e6676595b3b3188963d35a5564736f6c63430007000033",
  "immutableReferences": {},
  "source": "// SPDX-License-Identifier: MIT\r\npragma solidity >=0.4.22 <0.9.0;\r\n\r\ncontract Counter\r\n{\r\n    uint256 public counter = 23;\r\n\r\n    function increment() public returns(uint256)\r\n    {\r\n        counter ++;\r\n        return counter;\r\n    }\r\n\r\n    function decrement() public returns(uint256)\r\n    {\r\n        counter --;\r\n        return counter;\r\n    }\r\n}",
  "sourcePath": "C:/Users/jcantone/Desktop/Cursos/Blockchain/CourseIt/Counter/counter-sc/contracts/Counter.sol",
  "compiler": {
    "name": "solc",
    "version": "0.7.0+commit.9e61f92b.Emscripten.clang"
  },
  "schemaVersion": "3.4.1",
  "updatedAt": "2021-08-28T13:08:36.463Z",
  "networkType": "ethereum",
  "devdoc": {
    "kind": "dev",
    "methods": {},
    "version": 1
  },
  "userdoc": {
    "kind": "user",
    "methods": {},
    "version": 1
  }
}